:020000040800F2
:1000000070070020890100085B220008A11A00087F
:10001000592200087103000817250008000000009D
:100020000000000000000000000000005F22000847
:1000300073030008000000005D2200086122000830
:10004000A3010008A3010008A3010008A301000800
:10005000A3010008A3010008A3010008A3010008F0
:10006000A3010008A3010008A3010008A3010008E0
:10007000A3010008A3010008A3010008A3010008D0
:10008000A3010008A301000891020008A3010008D1
:10009000A3010008A3010008A3010008A3010008B0
:1000A000A3010008A3010008A3010008A3010008A0
:1000B000A3010008A3010008A3010008A301000890
:1000C000A3010008A3010008A3010008A301000880
:1000D000A3010008A3010008A3010008A301000870
:1000E000A3010008A3010008A301000800F002F822
:1000F00000F03AF80AA090E8000C82448344AAF188
:100100000107DA4501D100F02FF8AFF2090EBAE885
:100110000F0013F0010F18BFFB1A43F0010318473B
:10012000082C0000282C0000103A24BF78C878C1A1
:10013000FAD8520724BF30C830C144BF04680C60ED
:10014000704700000023002400250026103A28BF35
:1001500078C1FBD8520728BF30C148BF0B60704739
:100160001FB51FBD10B510BD00F058F81146FFF7C0
:10017000F7FF02F0E1F900F076F803B4FFF7F2FFC1
:1001800003BC00F07DF8000009488047094800479B
:10019000FEE7FEE7FEE7FEE7FEE7FEE7FEE7FEE737
:1001A000FEE7FEE704480549054A064B7047000094
:1001B000DD220008ED00000870010020700700201B
:1001C00070030020700300204FF0000200B51346BA
:1001D00094469646203922BFA0E80C50A0E80C5067
:1001E000B1F12001BFF4F7AF090728BFA0E80C5018
:1001F00048BF0CC05DF804EB890028BF40F8042B11
:1002000008BF704748BF20F8022B11F0804F18BF7D
:1002100000F8012B7047704770477047754600F033
:100220002BF8AE4605006946534620F00700854688
:1002300018B020B5FFF7B6FFBDE820404FF000062C
:100240004FF000074FF000084FF0000B21F00701BE
:10025000AC46ACE8C009ACE8C009ACE8C009ACE801
:10026000C0098D46704710B50446AFF300802046A4
:10027000BDE81040FFF781BF004870471001002023
:1002800001491820ABBEFEE72600020070470000BF
:10029000014800F006B900004400002070B5044693
:1002A00000688168C943C90717D1816821F001013D
:1002B000816000F085FB05460AE000BF00F080FB8E
:1002C000401B022804D920688068C043C00706D0BC
:1002D00020688068C043C007F0D0002070BDA06ACD
:1002E00040F01000A062E06A40F00100E0620120EE
:1002F00070BD0000F8B500260446009600688168CD
:10030000C943C9072DD0816841F0010181601648B9
:1003100016490068B0FBF1F000E0401E0090002894
:10032000FBD100F04DFB054616E000BF00F048FB96
:10033000401B022810D920688068C043C0070BD03A
:10034000A06A40F01000A062E06A40F00100E062A4
:1003500084F824600120F8BD20688068C043C0078D
:10036000E4D10020F8BD00004000002040420F0012
:10037000FEE7704770470000F8B50024009490F83D
:1003800024202546012A12D0012280F824204A6820
:100390001F23072A0DD20668776B521E02EB8202DA
:1003A00093409F430B6893401F43776319E00220FB
:1003B000F8BD06680D2A0AD2376BD21F02EB820203
:1003C00093409F430B6893401F43376309E0F76AEC
:1003D0000D3A02EB820293409F430B6893401F4308
:1003E000F7620A68072306680A2A0AD3F7680A3AF6
:1003F00002EB420293409F438B6893401F43F76098
:1004000008E0376902EB420293409F438B689340B8
:100410001F4337610A68102A01D0112A20D1124BDC
:1004200002689A4217D193681B0219D4936843F467
:10043000000393600968102912D10C490C4A09681D
:10044000B1FBF2F101EB8101490000E0491E00918E
:100450000029FBD104E0816A41F02001816201247E
:1004600080F824502046F8BD0024014040000020C0
:1004700040420F0010B5074800F010F8064940F65A
:10048000B8329042C86001DD012000E00020086120
:1004900010BD000044000020000000200068C06C77
:1004A000704770B50446006806684568A90625D5FA
:1004B000B10723D5A16AC90603D4A16A41F400712A
:1004C000A1628168C1F34241072910D1217B71B932
:1004D000416821F020014160A06A20F48070A06290
:1004E000A06AC00403D4A06A40F00100A0622046C4
:1004F000FFF7C0FF21686FF01200086028062ED5B4
:1005000070072CD5A06AC00603D4A06A40F400503E
:10051000A06220688168C1F30231072909D04168CF
:10052000490515D48168C1F34241072910D1217BC7
:1005300071B9416821F080014160A06A20F48050C7
:10054000A062A06AC00503D4A06A40F00100A062C6
:100550002046FFF70FFF21686FF00C000860680667
:100560000CD5F0070AD0A06A40F48030A062204683
:1005700000F094F821686FF00100086070BD000081
:100580002DE9F0414FF0000704003D467ED0A06AFF
:10059000002628B9E66284F82460204600F080F83E
:1005A0002046FFF77BFEA16A01F01001014304D051
:1005B000A06A40F01000A06268E0A16A21F48851AE
:1005C00041F00201A1626268E169237B0A4347EAC4
:1005D00043010A43A1684FF48077B94208D001294A
:1005E00006D0002194F814C0BCF1010F02D00AE03B
:1005F0003946F7E7F3B1A36A43F02003A362E36A45
:1006000043F00103E3622368D3F804C02CF4694C7F
:100610004CEA010CC3F804C023689968DFF870C085
:1006200001EA0C0111439960A168B9420BD001297C
:1006300009D00CE0DFF85CC0A3690CEB43330B433B
:1006400043F40061DFE7218A0D05A5F580152168D7
:10065000CB6A23F470032B43CB62216889680E4B6D
:100660001940914208D1E662A16A21F0020141F0ED
:100670000101A162BDE8F081A06A20F0020040F013
:100680001000A062E06A40F00100E0620120F1E7A2
:10069000FDF7E1FF00E0FFFFFE0E1FFF70470000C7
:1006A00000B585B00021009101910291039100688D
:1006B0001249884220D11248816941F40071816158
:1006C000816901F400710491816941F00401816143
:1006D0008069694600F00400049001200090032026
:1006E0000190084800F076F800221146122000F030
:1006F0007DFC122000F06CFC05B000BD0024014020
:10070000001002400008014070B5044690F8240033
:1007100001280DD0012084F824002046FFF7EAFDCF
:1007200002004FF0000005D084F82400104670BD90
:10073000022070BDA16A40F60163994341F48071C3
:10074000A162224D23682249AB4218D10E6816F4EB
:10075000702F14D0A66A46F48016A6620E6876053D
:1007600005D5A66A26F4005646F48056A662A66A07
:10077000F6040AD5E66A26F00606E66206E0A66AF0
:1007800026F48016A6625E68E9E7E06284F8240039
:100790006FF0020018602068436843F02003436054
:1007A00020688368C3F34243072B05D1A84208D1D0
:1007B000096811F4702F04D0816841F480118160C0
:1007C000B4E7816841F4A001F9E700000028014086
:1007D000042401402DE9F84FDFF8B8910024A9F175
:1007E000040B23460F2709F1040AABF1040EC9E0FC
:1007F0000125A5402A40AA427DD1674ED1F804C008
:10080000ACEB0608B44532D014DCBCF1030F3AD08F
:1008100009DCBCF1000F2AD0BCF1010F1CD0BCF1E7
:10082000020F31D11DE0BCF1110F17D0BCF1120F36
:100830002AD119E0B8F5881F19D006DCB8F5803F39
:1008400015D0B8F5801F1FD111E0B8F5001F0ED0EC
:10085000B8F5041F18D10AE0CB6815E0CB681B1D62
:1008600012E0CB6808330FE0CB680C330CE08B68E8
:100870002BB1012B4FF0080303D0456104E00423A2
:1008800002E0056100E00023FF2A01D8064601E0EE
:1008900000F104064FEA840501D9A5F12005D6F838
:1008A000008007FA05FC28EA0C0803FA05F548EA77
:1008B0000508C6F800804D68ED0062D5374DAE6979
:1008C00046F00106AE61AD6924F0030605F00105AE
:1008D0000095334D06EB050CDCF80850A607360FE3
:1008E00007FA06F825EA0805DFF8B880404503D185
:1008F0004FF0000817E044E0DFF8AC80404502D13B
:100900004FF001080FE0DFF8A480404502D14FF01E
:10091000020808E0DFF89880404502D14FF0030854
:1009200001E04FF0040808FA06F848EA0508CCF898
:1009300008804D68D9F80060ED024D4601D5164398
:1009400000E096432E604D68DAF80060AD0255462F
:1009500001D5164300E096432E604D68DBF8006039
:10096000AD035D4601D5164300E096432E604D6809
:10097000DEF80060ED03754601D5164300E09643AE
:100980002E60641C0D682A46E5407FF431AFBDE857
:10099000F88F000008040140000011100010024010
:1009A0000000014000080140000C0140001001401F
:1009B000001401400AB1016170470904FBE700001F
:1009C00001488068704700003400002070B50400C2
:1009D00025D094F83D00002520B984F83C502046ED
:1009E00000F078FA242084F83D002068016821F0A6
:1009F000010101602068016841F400410160206844
:100A0000016821F40041016000F02EFC4D4A61684C
:100A1000914201D84C4900E04C49884201D2012062
:100A200070BD4B492368B0FBF1F15E6826F03F06CC
:100A30000E435E606368934206D94FF49673594340
:100A40004FF47A73B1FBF3F12368491C1E6A26F058
:100A50003F06314319626168914210D84900401E37
:100A6000B0FBF1F2521CC2F30B02042A01D20420A3
:100A700022E0B0FBF1F0401CC0F30B001CE0A268C8
:100A8000F2B301EBC10303EB0116431EB3FBF6F314
:100A90005B1C43F480431B0549D092B301EBC102B8
:100AA00002EB0111401EB0FBF1F0401CC0F30B0043
:100AB00040F4804040F400402168CA694CF6FF735E
:100AC0009A431043C861D4E90710014320680268C3
:100AD00022F0C00211430160D4E903010143206800
:100AE000826848F2FF339A4311438160D4E90501DB
:100AF00008432168CA6822F0FF021043C86001E081
:100B00000EE016E02068016841F0010101602564F3
:100B1000202084F83D00256384F83E50002070BDFD
:100B200001EB4106431EB3FBF6F35B1CB3E7012068
:100B3000C2E701EB4101401EB0FBF1F0401CC0F3E5
:100B40000B00B7E7A086010080841E0000093D006D
:100B500040420F002DE9FF4F83B00025DDE91079F9
:100B60009A4693460446DDF848800095FFF728FF33
:100B7000064694F83D0020287CD11923012285499E
:100B80002046009601F0A2F80028F5D194F83C0028
:100B900001286FD0012084F83C0020680168C90753
:100BA00003D1016841F0010101602068016821F46E
:100BB00000610160222084F83D00402084F83E005E
:100BC00025646762A4F82A90608D20857248E062EF
:100BD000CDE9008653465A462046049900F078FF36
:100BE00000287DD1208DDFF8B491202768B101283D
:100BF00014D00228206801681ED041F48061016091
:100C00002068416980690090B6E020684169816987
:100C10000091016841F400710160ADE02068016855
:100C200021F48061016072B6206841698169009198
:100C3000016841F400710AE041F40061016072B69C
:100C40002068416981690091016821F48061016037
:100C500062B691E0032868D801280CD002284346E8
:100C60004FF000024946204600960FD001F02EF8C2
:100C7000B0BB10E08BE032464146204601F0CCF894
:100C800070BB20680069616A08706CE001F01EF8B2
:100C900030BB72B634E02068016821F480610160E5
:100CA00072B620680069616A0870606A401C606200
:100CB000208D401E2085608D401E6085384846F29C
:100CC000A8110068B0FBF1F0C0EBC00000EB8000A1
:100CD0000090401E009008D020684069C04300E0AA
:100CE00029E040070CD50098F3E744F8305F6773BC
:100CF000A573206940F02000206162B625731AE0D8
:100D00002068016841F40071016020680069616A2F
:100D10000870606A401C6062218D491E2185618DCA
:100D2000491E618562B621681BE032464146204675
:100D300001F072F818B1012007B0BDE8F08F20680B
:100D40000069616A0870606A401C6062218D491EFA
:100D50002185618D491E618521684A69D243520708
:100D60000AD409690170606A401C6062208D401ECF
:100D70002085608D401E6085208D00287FF46AAF3D
:100D800084F83D7084F83E5084F83C50D4E702204B
:100D9000D2E70000020010000000FFFF0400010085
:100DA000400000202DE9FF4F83B09A46DDE91197FE
:100DB00093460446DDF84080FFF702FE054694F8AE
:100DC0003D0020287FD1192301224049204600956B
:100DD00000F07CFF002876D194F83C00012872D006
:100DE000012084F83C0020680168C90703D101682C
:100DF00041F0010101602068016821F40061016097
:100E0000212084F83D00402084F83E00002626641E
:100E1000C4F82480A4F82A90608D20852C48E062D4
:100E2000CDE9007553465A462046049900F0CEFE9F
:100E300070B930E02A463946204601F025F858B10D
:100E4000206C042804D12068016841F4007101601D
:100E5000012007B0BDE8F08F606A21680078086162
:100E6000606A401C6062218D491E89B22185628DB5
:100E7000521E628522685369DB435B070BD469B15C
:100E800000781061606A401C6062208D401E2085E1
:100E9000608D401E6085208D0028CBD12A463946C2
:100EA000204600F0E7FE0028CAD154F83D0B016847
:100EB00041F400710160202004F81E09E67766778E
:100EC0000020C6E7FFE70220C3E700000200100091
:100ED0000000FFFF10B586B0002100910191029142
:100EE000039100680F4988421AD10F4CA06940F065
:100EF0000800A061A069694600F008000490C020C5
:100F0000009012200190032003900848FFF762FC34
:100F1000E06940F40010E061E06900F40010049022
:100F200006B010BD0054004000100240000C01400B
:100F300002488168027811448160704734000020C3
:100F4000074810B5016841F010010160032000F06E
:100F50006DF80F2000F006F800F024F8002010BD16
:100F60000020024070B50D4D04464FF47A71287888
:100F7000B1FBF0F00A490968B1FBF0F000F03AFB70
:100F800048B9102C07D200222146501E00F02EF83E
:100F900000206C6070BD012070BD00003400002096
:100FA00040000020094808B5816941F001018161D4
:100FB000816901F001010091C16941F08051C16175
:100FC000C06900F08050009008BD00000010024091
:100FD000002809DB00F01F02012191404009800038
:100FE00000F1E020C0F8001170470000F0B40E4B93
:100FF0001B680C46C3F30223C3F10705042D00D977
:101000000425191D072901D2002300E0DB1E01265B
:1010100006FA05F1491E214099409E40761E164071
:101020003143F0BC01F078BA0CED00E0064900F065
:10103000070208684FF6FF03184040EA0220034AFF
:1010400010430860704700000CED00E00000FA0556
:101050002DE9F84305460078354CC00754D0E069C7
:101060000026C00008D4E06940F08050E061E069EB
:10107000012600F0805000902E480168C90512D466
:101080000168804641F480710160FFF799FC0746D2
:1010900005E000BFFFF794FCC01B642823D8D8F8F4
:1010A0000000C005F6D5206A10F4407021D0A98850
:1010B00001F4407181421CD0206A1F49012220F4B2
:1010C00040700A6000220A602062C00711D0FFF75A
:1010D00077FC074641F2883808E000BFFFF770FC54
:1010E000C11B414502D90320BDE8F883206A80076F
:1010F000F4D5206A696820F44070084320621EB16C
:10110000E06920F08050E0612878800705D56068AC
:10111000A96820F44040084360602878C00605D5DF
:101120006068E96820F48000084360600020DBE725
:101130000010024000700040400442422DE9F04798
:101140000F46050061D0434E306800F00700B842FA
:1011500009D2306820F0070038433060306800F072
:101160000700B84251D128683B4C810712D540078F
:1011700003D5606840F4E06060602878000703D51C
:10118000606840F4605060606068A96820F0F0001A
:10119000084360602878C00728D06868012810D00C
:1011A0002168022810D0890700292EDA616821F011
:1011B000030101436160FFF703FC804641F2883977
:1011C0000DE021688903EFE78901EDE7FFF7F8FB00
:1011D000A0EB0801494502D90320BDE8F08760680B
:1011E000696800F00C00B0EB810FEFD1306800F0BF
:1011F0000700B8420BD9306820F007003843306050
:10120000306800F00700B84201D00120E5E72878F7
:10121000400705D56068E96820F4E0600843606035
:101220002878000706D56068296920F4605040EAF4
:10123000C100606000F028F86168084AC1F303113A
:10124000515CC8400649086006480068FFF78AFEFE
:101250000020C2E700200240001002400E2D0008CE
:101260004000002038000020044805490068496813
:10127000044AC1F30221515CC8407047400000207D
:10128000001002401E2D00080E4A51680E4801F061
:101290000C03042B11D0082B0FD10C48C1F383434E
:1012A000C903C05C0AD55168084AC1F34041921E87
:1012B000515C054A5043B0FBF1F070470449484384
:1012C000704700000010024000127A00FE2C000857
:1012D00000093D002DE9F84F040070D02078C04D82
:1012E000C00749D06868C0F38100012807D068684A
:1012F000C0F38100022809D16868C00306D52868B8
:10130000800339D560680028E7D035E06068B0F523
:10131000803F0BD010B1B0F5A02F11D0286820F479
:1013200080302860286820F4802002E0286840F49B
:1013300080302860606890B1FFF742FB06460AE003
:10134000286840F480202860F0E700BFFFF738FBF2
:10135000801B642873D828688003F7D50CE0FFF75A
:101360002FFB064605E000BFFFF72AFB801B642821
:10137000F0D828688003F7D420789A4E80074FF081
:1013800001094FF0000839D5686810F00C0F07D03C
:101390006868C0F38100022809D16868C00306D4D8
:1013A0002868800714D52069012808D110E0206939
:1013B000B0B1C6F80090FFF703FB074605E00AE16D
:1013C000FFF7FEFAC01B0228C4D828688007F7D5AB
:1013D0002868616920F0F80040EAC10028600DE04B
:1013E000C6F80080FFF7ECFA074604E0FFF7E8FADA
:1013F000C01B022823D828688007F7D4207800076C
:101400002CD57948A169D9B1C0F80090FFF7D8FA76
:10141000074604E0FFF7D4FAC01B02280FD8686A19
:101420008007F7D571484FF4FA510068B0FBF1F02E
:10143000009000BF0098411E0091FAD20EE080E0BB
:10144000C0F80080FFF7BCFA074604E0FFF7B8FADF
:10145000C01B022875D8686A8007F7D42078400737
:1014600060D5E8690027C00008D4E86940F08050E2
:10147000E861E869012700F0805000905C4801684D
:10148000C90513D40168834641F480710160FFF7F8
:1014900097FA824606E000BFFFF792FAA0EB0A0037
:1014A00064284ED8DBF80000C005F5D5E0680128B7
:1014B0000AD008B1052813D0286A20F0010028625C
:1014C000286A20F0040002E0286A40F00100286247
:1014D000E06841F2883B98B1FFF772FA82460BE070
:1014E000286A40F004002862EEE700BFFFF768FAC0
:1014F000A0EB0A0159455AD8286A8007F6D50CE0B6
:10150000FFF75EFA824605E0FFF75AFAA0EB0A0100
:1015100059454CD8286A8007F6D41FB1E86920F0F5
:101520008050E861E06988B36968C1F381010229EC
:1015300044D00228C6F8608004D0FFF741FA044680
:1015400038E034E0FFF73CFA074604E0FFF738FAEA
:10155000C01B02282BD828688001F7D4206AB0F578
:10156000803F05D16868A16820F4003008436860B6
:10157000D4E908010843696821F4741108436860DC
:10158000C6F86090FFF71CFA044606E025E000BFAD
:10159000FFF716FA001B022809D828688001F7D542
:1015A0001BE000BFFFF70CFA001B022802D9032042
:1015B000BDE8F88F28688001F4D40EE00128F7D048
:1015C0006868226A00F48031914204D1616A00F4B3
:1015D0007010884201D00120EAE70020E8E700000F
:1015E00000100240000042428004424240000020BD
:1015F0000070004010B5401EB0F1807F01D3012083
:1016000010BD4FF0E02460610F21601700F084FFEF
:101610000020A06107202061002010BD10B590F8C7
:101620003C20012A22D0012280F83C20CA688C6824
:1016300022F4407222434C6822F4806222430C68F8
:1016400022F4006222430C6922F4805222434C6946
:1016500022F400522243C969002322F480420A4343
:1016600001684A6480F83C30002010BD022010BDA3
:1016700070B590F83C20012A26D0012480F83C4027
:10168000022280F83D2003685A689D6822F07006A7
:101690000A6832435A600D4B02689A4208D0B2F190
:1016A000804F05D00A4B9A4202D00A4B9A4204D18D
:1016B000496825F080031943916080F83D4000217E
:1016C00080F83C10084670BD022070BD002C01401F
:1016D000000400400008004010B5040003D094F856
:1016E0003D0010B107E0012010BD002084F83C004F
:1016F000204600F01FF8022084F83D00211D2068DC
:1017000000F0EEFD012084F8460084F83E0084F8E5
:101710003F0084F8400084F8410084F8420084F8D7
:10172000430084F8440084F8450084F83D0000201C
:1017300010BD000008B500680649884208D1064877
:10174000816941F400618161806900F4006000906A
:1017500008BD0000002C01400010024090F83D1030
:10176000012901D001207047022180F83D10016855
:10177000CA6842F00102CA6000680B49884208D07A
:10178000B0F1804F05D00949884202D0084988420B
:1017900004D1816801F00701062903D0016841F0F6
:1017A0000101016000207047002C0140000400404E
:1017B0000008004070B5044690F83C000025012860
:1017C00017D0012684F83C60022084F83D00206890
:1017D000826822F0770222F47F42826008685028F3
:1017E00038D00DDC20284FD005DC90B3102811D163
:1017F0004AE0022070BD302846D040280AD13BE0A4
:1018000060282FD070280DD0B0F5805F03D0B0F5E0
:10181000005F12D0012584F83D60002084F83C0070
:10182000284670BDCB68D1E90121206800F09BFDFE
:101830002068816841F0770109E0CB68D1E9012196
:10184000206800F090FD2068816841F4804181604B
:10185000E1E719E0CA684968206800F039FE5021C4
:10186000206806E0CA684968206800F042FE6021EE
:10187000206800F082FDCEE7CA684968206800F061
:1018800027FE40212068F4E7226801461046F0E771
:1018900000B585B00021009101910291039100688B
:1018A0000B49884212D10B48816941F004018161E2
:1018B0008069694600F0040004904FF48070009045
:1018C0000220019003900448FEF784FF05B000BD9C
:1018D000002C0140001002400008014070B5044691
:1018E00090F83C0000260D4601280FD0012084F816
:1018F0003C006AB1042A1DD0082A2FD00C2A3FD000
:101900000126002084F83C00304670BD022070BDE6
:10191000206800F03BFD2068816941F00801816189
:101920002068816921F004018161206881692A6948
:10193000114311E0206800F051FD2068816941F4F5
:10194000006181612068816921F480618161206882
:1019500081692A6941EA02218161D2E7206800F0A9
:1019600069FD2068C16941F00801C1612068C16951
:1019700021F00401C1612068C1692A69114311E0A5
:10198000206800F083FD2068C16941F40061C161F5
:101990002068C16921F48061C1612068C1692A6938
:1019A00041EA0221C161ACE710B5040003D094F80C
:1019B0003D0010B107E0012010BD002084F83C007C
:1019C000204600F01EF8022084F83D00211D20680A
:1019D00000F086FC012084F8460084F83E0084F87C
:1019E0003F0084F8400084F8410084F8420084F805
:1019F000430084F8440084F8450084F83D0000204A
:101A000010BD704710B50446022249B104290ED01A
:101A1000082913D094F84100012816D0012010BDE8
:101A200094F83E000128F9D184F83E200FE094F8A4
:101A30003F000128F2D184F83F2008E094F84000EC
:101A40000128EBD184F8402001E084F841200122F4
:101A5000206800F07BFC0F492068884203D1426C6B
:101A600042F4004242642068884208D0B0F1804FBE
:101A700005D00949884202D00849884204D18168CA
:101A800001F00701062903D0016841F0010101605E
:101A9000002010BD002C0140000400400008004060
:101AA000FEE701684A69D24352050FD46FF48062A1
:101AB0004A61002140F8301F20224273817302697D
:101AC00042F0040202610173012070470020704758
:101AD0002DE9F84F0446006889460B9D0168984639
:101AE000174641F4806101602068016841F480710B
:101AF000016000954FF0011B0022594620460A9BC9
:101B000000F0E4F84FF4007A40B120680068C005A6
:101B100001D5C4F840A00320BDE8F88F216809F082
:101B2000FE0008612B46284920460A9A00F016F963
:101B3000F0BB20684169806900902A4620460A99D6
:101B400000F0A2F940B1206C04283AD12068016865
:101B500041F40071016034E0FEB2B8F1010F09D028
:101B60002168380A08612A4620460A9900F08CF953
:101B70000028E8D1206806612A4620460A9900F02C
:101B800083F90028DFD12068016841F48071016089
:101B900000950022594620460A9B00F097F800283D
:101BA000B3D1216809F0FF0040F00100086100E0B6
:101BB00007E02B46044920460A9A00F0CFF8002897
:101BC000AAD00120A8E70000020001002DE9F84397
:101BD000044600680D46DDE90897016898461646F8
:101BE00041F4807101604B4600224FF00111204604
:101BF000009700F06BF848B120680068C00502D576
:101C00004FF4007020640320BDE8F883216805F0DC
:101C1000FE0008613B464A461549204600F09EF802
:101C200088B920684169806900903A464946204653
:101C300000F02AF948B1206C042804D1206801681A
:101C400041F4007101600120DEE7F5B2B8F1010F47
:101C500009D02168300A08613A464946204600F01A
:101C600013F90028E7D1206805610020CCE70000C7
:101C70000200010070B516460D4604461EE02046DF
:101C8000FFF70FFF08B1012070BD681C16D0FEF7EA
:101C900097FE801BA84200D885B920684069C043E0
:101CA00040070BD5002044F8300F20216173A0734A
:101CB000216941F0200121612073E4E72068406937
:101CC000C0434007DBD4002070BD00002DE9F04781
:101CD000984617460D460446C1F30746DDF82090A6
:101CE0002AE000BFB8F1FF3F26D0FEF769FEA0EB67
:101CF0000901414502D8B8F1000F1DD12068012E1D
:101D000016D0806925EA00000004000C12D00020E3
:101D1000B84211D1002044F8300F20216173A07324
:101D2000216941F02001216120730120BDE8F08785
:101D30004069E7E70120EBE72068012E0AD08069BF
:101D400025EA00000004000C06D00020B842C9D0EB
:101D50000020EBE74069F3E70120F7E72DE9F047C2
:101D6000984616460D4604464FF000094FF0200AEB
:101D7000C1F3074723E020684069C043400515D4FC
:101D80002068016841F40071016021686FF480608F
:101D90004861C4F8309084F83DA084F83E90216CEE
:101DA00041F00401216484F83C9021E0701C06D0CD
:101DB000FEF706FEA0EB0800B04203D816B1012FD3
:101DC0001FD021E02068012F15D0806925EA00008E
:101DD0000004000C18D000BF44F8309F84F80DA018
:101DE00084F80E90216941F02001216184F80C9063
:101DF0000120BDE8F087406925EA00000004000CDE
:101E0000EAD12068406901E02068806925EA000085
:101E10000004000CAFD1ECE72DE9F041002590461D
:101E20000E460446202728E04069C043C0060CD473
:101E300054F8301B6FF01000486144F81059677770
:101E4000A577206A2062257714E0FEF7B9FDA0EBA4
:101E50000800B04200D886B920684069C0434006F7
:101E60000BD544F8305F6773A573206940F02000FC
:101E7000206125730120BDE8F08120684169C943D4
:101E80004906D1D40020F6E770B516460D46044643
:101E90001EE02046FFF705FE08B1012070BD681C5A
:101EA00016D0FEF78DFD801BA84200D885B92068AA
:101EB0004069C04300060BD5002044F8300F2021B4
:101EC0006173A073216941F0200121612073E4E76F
:101ED00020684069C0430006DBD4002070BD0000CC
:101EE000F0B585B0012504A8CDE900054FF47A745A
:101EF0002B467522D02102941B48FEF72BFE9DF83D
:101F0000100068282ED1002703AE8DF80C700096C3
:101F1000CDE9015401236B22D0211348FEF742FF83
:101F200007208DF80C000096CDE9015401231922F9
:101F3000D0210D48FEF736FF8DF80C700096CDE9E4
:101F4000015401231C22D0210748FEF72BFF8DF8F6
:101F50000C700096CDE9015401231B22D0210248C8
:101F6000FEF720FF05B0F0BD74000020F0B585B08D
:101F70004FF47A72062103A88DE8070001233B2263
:101F8000D0211C48FEF7E6FDBDF80C001A4C40BA03
:101F900000B22080BDF80E1049BA0EB26680BDF8BE
:101FA000101049BA0DB2A58000F0A4FC6FF00D0727
:101FB0003A4600F05DFE00F00BFB1049A06100F016
:101FC00059FD00F003FD00F03DFD2063304600F0B8
:101FD00091FC3A4600F04CFE00F0FAFAE061284627
:101FE00000F088FC3A4600F043FE00F0F1FA20626F
:101FF00005B0F0BD74000020000000200000C842C1
:10200000F0B585B04FF47A72062103A88DE8070079
:1020100001234322D0211948FEF79CFDBDF80C0096
:10202000174C40BA00B2E080BDF80E1049BA0EB2AB
:102030002681BDF8101049BA0DB2658100F05AFC36
:10204000104F00223B4600F0FDFA00F0C1FA60623A
:10205000304600F04FFC00223B4600F0F3FA00F05F
:10206000B7FAA062284600F045FC00223B4600F08B
:10207000E9FA00F0ADFAE06205B0F0BD74000020AE
:1020800000000020006060403EB50024104800942D
:10209000019402940D498460016004730475012564
:1020A00005614FF460214460C161FEF769FA08B12F
:1020B00072B6FEE7CDE90045694605480294FEF791
:1020C0005BF9002801D072B6FEE73EBD0024014056
:1020D000440000202DE9F04186B0002428480094F7
:1020E000019402940394816941F010018161816936
:1020F00001F010010491816941F020018161816941
:1021000001F020010491816941F00401816181693C
:1021100001F004010491816941F008018161806945
:10212000184F00F008004FF4005504900022294693
:102130003846FEF73FFCDFF8508000220C21404675
:10214000FEF738FC0126CDE90056022569463846DF
:10215000CDE90245FEF73EFBCDE900546946404615
:102160000294FEF737FB0C20CDE900066946404695
:10217000CDE90245FEF72EFB06B0BDE8F081000078
:1021800000100240001001400008014010B596B058
:1021900000240F9410941194129413941C2108A8F5
:1021A0001494FEF711F820216846FEF70DF829482F
:1021B0002749016040F2CF21C0E9011440F2E73124
:1021C000C0E9031444618461FFF786FA08B172B66E
:1021D000FEE74FF480500F900FA91E48FFF7EAFA70
:1021E00008B172B6FEE71B48FFF7DEFB08B172B616
:1021F000FEE7139413A917481494FFF739FA08B1AE
:1022000072B6FEE76020CDE908040A940B940C94A2
:102210000D94002208A90F480E94FFF75FFB08B148
:1022200072B6FEE700944FF40050CDE904400294EA
:1022300001940394694607480794FFF7EFF908B142
:1022400072B6FEE70348FFF723FB16B010BD00008F
:10225000002C0140C8000020FEE7FEE770477047F1
:10226000FEF766BE30B593B028216846FDF7ACFF97
:1022700014210AA8FDF7A8FF002501200F9510954D
:102280001195010412958DE8230004904FF4E0109D
:10229000CDE90810022407946846FFF71BF808B13F
:1022A00072B6FEE70AA90F2081E831004FF4806082
:1022B000CDE90D0502210AA8FEF740FF08B172B66C
:1022C000FEE74FF4004011900F940FA8FEF7C0FEF8
:1022D000002801D072B6FEE713B030BD7047000091
:1022E000F0B50268164B174C174D4FF080479842D7
:1022F00005D0B84203D0A04201D0A84203D122F0B9
:1023000070064A683243984205D0B84203D0A042D2
:1023100001D0A84203D122F44074CA6822434C6918
:1023200022F08002224302608A68C2620A688262E6
:10233000984201D10969016301214161F0BD0000AA
:10234000002C0140000400400008004010B501F0DE
:102350001F030121046A99408C430462016A9A4078
:102360001143016210BD10B5846842EA032224F4CF
:102370007F440A432243826010BD826822F07002CB
:102380000A4342F0070181607047000030B5036ADC
:10239000026A22F0010202624268846924F0730535
:1023A0000C682C4323F002058B682B430A4DA8428E
:1023B0000BD123F00805CB6822F440722B434D6902
:1023C00023F0040315438A692A4342608461496803
:1023D0004163036230BD0000002C014030B5026A49
:1023E000036A23F010030362436884690D6824F4D0
:1023F000E64444EA05248D6822F0200242EA0512F0
:102400000B4DA8420ED1CD6822F0800242EA05129F
:102410004D6923F4406343EA85038D6922F040024D
:1024200043EA85034360846149688163026230BD89
:10243000002C014030B5036A026A22F48072026205
:102440004268C46923F4007324F073050C682C43BC
:102450008D6843EA05230C4DA8420ED1CD6823F4C4
:10246000006343EA05234D6922F4405242EA051213
:102470008D6923F4806342EA05124260C4614968B1
:10248000C163036230BD0000002C014030B5046A16
:10249000026A22F4805202624268C3690D6823F422
:1024A000E64343EA05238D6824F4005444EA0534E6
:1024B000064DA84204D14D6922F4804242EA8512B9
:1024C0004260C36149680164046230BD002C014070
:1024D00010B5036A046A24F001040462846924F0DC
:1024E000F00444EA021423F00A020A4384610262FF
:1024F00010BD10B5036A046A24F0100404628469F4
:1025000023F0A00324F4704444EA023243EA0111A8
:102510008261016210BDFEE70907090E002804DB95
:1025200000F1E02080F80014704700F00F0000F187
:10253000E02080F8141D7047FEF702FDFFF792FEC1
:10254000FFF7C8FDFFF7A0FD1C481B4900240160F0
:102550001B49C0E901144FF48041C0E903414461C3
:102560008461C4610462FEF731FA08B172B6FEE715
:10257000FFF70CFE11485430FFF7F0F80F48002128
:102580005430FFF73FFAFFF7ABFC0E4D6420286094
:102590000D4F0E4E09483038FEF7B6F8FFF730FD04
:1025A000FFF7E4FC306BB84203D200F02BFA28604E
:1025B000F0E72C60EEE700000054004074000020BB
:1025C000A0860100342C0140000080800000002023
:1025D00021F00042A2F16052B2F5801F01F00043E9
:1025E00028BFD2F17F6C0BD95FEA001C43EAC2021C
:1025F00042EB507018BF704728BF20F001007047B1
:10260000B2F5801FBCBF184670474FEA410C1CF55D
:10261000001F02D2084600F0F4BA70B500F081F94C
:1026200000000089FFF7F6BF4FF00040A0F58000E2
:102630007047000002494FF0000000F0E7BA00BF09
:102640000000F87F2DE9C04130B4DFF8A0C23CEAB9
:10265000111418BF3CEA131400F0EC8081EA030562
:102660001CEA111444EAD57418BF1CEA131500F0D3
:10267000C780A4EB05044FF0004545EAC12145EAB7
:10268000C32341EA505143EA525304F17F74994203
:1026900004F500344FEAC0204FEAC22208BF90423E
:1026A00000F09C804FEA13650FF24016765D4FEA0A
:1026B000134506FB05F7C7F1807706FB07F74FEADE
:1026C000D737A7FB03687642C8F58038A7FB06CE4C
:1026D00038BFA8F1010807FB08E64FF0000EA6FB83
:1026E000028CE6FB03CEDCF1000CCEF1004E38BFCD
:1026F000AEF1010EA6FB0C584FF000074FF000059D
:10270000E6FB0E87A1FB08C6A0FB07CE16EB0E0664
:1027100045F10005E1FB076515F1E04E7EBFA4F52C
:1027200080345FEA46066D4116F1800745F10005E9
:102730004FEA17274FEA066647EA0567A6F1DE4625
:10274000B6F1805F4FEA15251FD9384624F0010CF9
:1027500005EBC471BCF1FE6F01EB0C1102D8F0BCAB
:10276000BDE8008124425CBF01F5801E9EEAC47F63
:1027700002D4F0BCBDE80081244238D4F0BCA1F101
:10278000C041BDE8004100F01AB94FEAD22242EA46
:1027900043524FEAD323A7FB02864FEAD02040EAF8
:1027A000415007FB03661EEA0E0F4FEAD12105FBDD
:1027B000026658BFA6EB0056B6EB00564FEA520E23
:1027C0004EEAC37E18EB0E0E56EB530EBDD518EB3A
:1027D00002085E417F1C55F10005B6E74FF48015F5
:1027E0004FF000074FF000064FF00008ADE7F0BCD7
:1027F0004FF0000001F1C04101F00041BDE800814F
:1028000011EA0C1F0CEA131500D00CE013EA0C1FA0
:1028100000F025804FF00000F0BC81EA030101F0D8
:102820000041BDE80081F0BCBDE8004181EA030140
:1028300000F0C5B8F0BCBDE8004170B500F071F81B
:10284000097EFC3E00F007B881EA03014FF000006A
:1028500001F00041704781EA030100F0B0B8F0BC1C
:10286000BDE800414FF0000021497047FFFDFBF932
:10287000F7F5F4F2F0EEEDEBE9E8E6E4E3E1E0DEB3
:10288000DDDBDAD8D7D5D4D3D1D0CFCDCCCBCAC825
:10289000C7C6C5C4C2C1C0BFBEBDBCBBBAB9B8B74C
:1028A000B6B5B4B3B2B1B0AFAEADACABAAA9A8A83F
:1028B000A7A6A5A4A3A3A2A1A09F9F9E9D9C9C9B0D
:1028C0009A999998979796959594939392919190B8
:1028D0008F8F8E8E8D8C8C8B8B8A89898888878749
:1028E0008685858484838382828181800000FF07BE
:1028F0000000F87F10F0004248BF4042B0FA80F379
:1029000010FA03F10AD0C3F11D0303F580634FEA07
:10291000415002EB035202EBD12170474FF000000F
:1029200070470EF1020E2EF0030E5EF8046B364275
:1029300005D4012A43EB030515F5001F12D8012821
:1029400041EB010C1CF5001F0CD80ED14FEAD17CD5
:1029500015F5001F0CEB4C0C0CF1020C08BF4CEBF6
:10296000D37C04E04FF0080C01E04FEAD37C0CEB81
:102970004C0526FA05F606F00706B6F1040C06D259
:102980000EEB860CBDE870404CF0010C6047DFE8B0
:102990000CF0090B02024FF000414FF00000A1F5CE
:1029A000002170BD19461046012851EB010418BFE3
:1029B000D4F5001484BF002001F0004170BD080868
:1029C000A0F500114FEA31017047000041000B0EE5
:1029D000D3F19E0208D950F400034FEA032323FAEF
:1029E00002F048BF4042704710B500F0C4F800BF85
:1029F00049922480002070476FF0004282EA200054
:102A000070470000C10DD1F19E0206DB4FEA0023A2
:102A100043F0004323FA02F07047004207D54FEA23
:102A20004001B1F1FE4F02D24FF00000704710B5E7
:102A300000F0A1F849922480002070476FEA20003E
:102A40007047000010F0004148BF4042B0FA80F3E8
:102A500010FA03F2C3F19D030BD051EAC35101EB0D
:102A60001220530638BF704700F1010008BF20F064
:102A7000010070474FF47F0C1CEAD0121EBF1CEA05
:102A8000D11392EA0C0F93EA0C0F00F0478090EA02
:102A9000010F48BF42F480724FF0004C4CEA002016
:102AA0004CEA012102EB0302A0FB0113A2F5000294
:102AB000002918BF43F001035B0028BF4FEA33032E
:102AC00042EB22425FEA132C4CEBC2502EBFBCEB10
:102AD000436FB2F57C0F70474FEA036CBCF1004FB7
:102AE00008BF20F00100B2F57C0F38BF70470BD54E
:102AF00082F0FF0212F5803FC8BF704700F1C0406E
:102B0000D8BF00F00040704700F5000C5FEA4C0CA5
:102B100048BF7047B0F1C04000F073B890EA010FB1
:102B20000CEAD11348BF42F48072624538BF634556
:102B300004D280EA010000F00040704710B500F0B8
:102B40001AF800BF8900013E00F007B800F009B88C
:102B50005FEA410C5FEA1C6C08D080EA010000F0DB
:102B600050B85FEA400C5FEA1C6CF6D14FF00040B1
:102B7000A0F5800070470EF1020E2EF0030E5EF8F5
:102B8000044B244204D44FEA4102B2F17F4F11D8E2
:102B90004FEA4003B3F17F4F0CD80ED14FEAD07CFF
:102BA000B2F17F4F0CEB4C0C0CF1020C08BF4CEB5C
:102BB000D17C04E04FF0080C01E04FEAD17C0CEB33
:102BC0004C0324FA03F404F00704B4F1040C06D215
:102BD0000EEB840CBDE810404CF0010C6047DFE8C0
:102BE0000CF0070802024FF00040A0F5800010BD75
:102BF0000846420018BFD2F1807288BF00F0004042
:102C000010BDFF2141EAD050C00570470CF00F0302
:102C1000092B08BF082000F059800A2B0BD0082B85
:102C200018BF704708BF1CF0400F0AD04FF00000DB
:102C30004FF0000170471CF0400F18BF4FF00040EC
:102C400070471CF0100F08D020F0704300F07F4256
:102C500042EAD3014FEA4370704700F0604021F030
:102C60007F4242EA000201F07F4040EA7270704702
:102C70004FF0FF0C4CF4E06C1CEA11531CBF9CEAB3
:102C8000030C9445C2BFDA4201EB02517047002B9E
:102C90000DD0BCF1000F0FD0002A01F00041A4BFFD
:102CA00041F0E04141F07F614FF00000704701F0DA
:102CB00000414FF00000704750EA01334FF09B0C89
:102CC00018BF4CF0806C7FF4B5AC70471CF4801FCB
:102CD00011D01CF4E02F03D06FEACC3149007047CB
:102CE0004FF04050EFF3008222F0704242EA0002BF
:102CF00082F3008870474FF0000070470102020322
:102D00000405060708090A0B0C0D0E0F1010000031
:102D1000000000000000010203040607080900008B
:102D20000000010203040000482D000800000020FC
:102D300044000000280100088C2D000844000020F9
:102D40002C07000044010008000000000000000003
:102D50000000000000000000000000000300000070
:102D60000000000000000000000000000000000063
:102D70000000000000000000000000000100000052
:0C2D800010000000000000000024F4001F
:04000005080000ED02
:00000001FF
